{
  "_format": "hh-sol-artifact-1",
  "contractName": "BoardThread",
  "sourceName": "contracts/BoardThread.sol",
  "abi": [
    {
      "inputs": [],
      "stateMutability": "nonpayable",
      "type": "constructor"
    },
    {
      "anonymous": false,
      "inputs": [
        {
          "indexed": false,
          "internalType": "uint256",
          "name": "postId",
          "type": "uint256"
        },
        {
          "indexed": false,
          "internalType": "address",
          "name": "author",
          "type": "address"
        },
        {
          "indexed": false,
          "internalType": "uint256",
          "name": "timestamp",
          "type": "uint256"
        },
        {
          "indexed": false,
          "internalType": "string",
          "name": "title",
          "type": "string"
        },
        {
          "indexed": false,
          "internalType": "string",
          "name": "contents",
          "type": "string"
        },
        {
          "indexed": false,
          "internalType": "string",
          "name": "imageUrl",
          "type": "string"
        },
        {
          "indexed": false,
          "internalType": "bool",
          "name": "isActive",
          "type": "bool"
        }
      ],
      "name": "ThreadUpdated",
      "type": "event"
    },
    {
      "anonymous": false,
      "inputs": [
        {
          "indexed": false,
          "internalType": "uint256",
          "name": "postId",
          "type": "uint256"
        },
        {
          "indexed": false,
          "internalType": "address",
          "name": "author",
          "type": "address"
        },
        {
          "indexed": false,
          "internalType": "uint256",
          "name": "timestamp",
          "type": "uint256"
        },
        {
          "indexed": false,
          "internalType": "string",
          "name": "title",
          "type": "string"
        },
        {
          "indexed": false,
          "internalType": "string",
          "name": "contents",
          "type": "string"
        },
        {
          "indexed": false,
          "internalType": "string",
          "name": "imageUrl",
          "type": "string"
        },
        {
          "indexed": false,
          "internalType": "bool",
          "name": "isActive",
          "type": "bool"
        }
      ],
      "name": "ThreadWritten",
      "type": "event"
    },
    {
      "inputs": [],
      "name": "threadId",
      "outputs": [
        {
          "internalType": "uint256",
          "name": "",
          "type": "uint256"
        }
      ],
      "stateMutability": "view",
      "type": "function"
    },
    {
      "inputs": [
        {
          "internalType": "uint256",
          "name": "_postId",
          "type": "uint256"
        },
        {
          "internalType": "string",
          "name": "_title",
          "type": "string"
        },
        {
          "internalType": "string",
          "name": "_contents",
          "type": "string"
        },
        {
          "internalType": "string",
          "name": "_imageUrl",
          "type": "string"
        },
        {
          "internalType": "bool",
          "name": "_isActive",
          "type": "bool"
        }
      ],
      "name": "updatePost",
      "outputs": [],
      "stateMutability": "nonpayable",
      "type": "function"
    },
    {
      "inputs": [
        {
          "internalType": "string",
          "name": "_title",
          "type": "string"
        },
        {
          "internalType": "string",
          "name": "_contents",
          "type": "string"
        },
        {
          "internalType": "string",
          "name": "_imageUrl",
          "type": "string"
        }
      ],
      "name": "writePost",
      "outputs": [],
      "stateMutability": "nonpayable",
      "type": "function"
    }
  ],
  "bytecode": "0x60806040526001600055348015601457600080fd5b506109ec806100246000396000f3fe608060405234801561001057600080fd5b50600436106100415760003560e01c80636e450105146100465780639b8a036614610062578063bc9f70f014610080575b600080fd5b610060600480360381019061005b91906104b0565b61009c565b005b61006a6101f6565b604051610077919061058e565b60405180910390f35b61009a600480360381019061009591906105a9565b6101fc565b005b600085116100df576040517f08c379a00000000000000000000000000000000000000000000000000000000081526004016100d6906106ad565b60405180910390fd5b600054851115610124576040517f08c379a000000000000000000000000000000000000000000000000000000000815260040161011b90610719565b60405180910390fd5b6000845111610168576040517f08c379a000000000000000000000000000000000000000000000000000000000815260040161015f90610785565b60405180910390fd5b60008351116101ac576040517f08c379a00000000000000000000000000000000000000000000000000000000081526004016101a3906107f1565b60405180910390fd5b7f343e50f31223beb3296d42a1e5658eb757c0ee1e831d021262e5cdbf52816f04853342878787876040516101e797969594939291906108cf565b60405180910390a15050505050565b60005481565b6000835111610240576040517f08c379a000000000000000000000000000000000000000000000000000000000815260040161023790610785565b60405180910390fd5b6000825111610284576040517f08c379a000000000000000000000000000000000000000000000000000000000815260040161027b906107f1565b60405180910390fd5b60016000808282546102969190610982565b925050819055507fa5b284a5b2d55dad6c666d73ec323321183ae7e997c1e56badbf7edf5ae340e0600054334286868660016040516102db97969594939291906108cf565b60405180910390a1505050565b6000604051905090565b600080fd5b600080fd5b6000819050919050565b61030f816102fc565b811461031a57600080fd5b50565b60008135905061032c81610306565b92915050565b600080fd5b600080fd5b6000601f19601f8301169050919050565b7f4e487b7100000000000000000000000000000000000000000000000000000000600052604160045260246000fd5b6103858261033c565b810181811067ffffffffffffffff821117156103a4576103a361034d565b5b80604052505050565b60006103b76102e8565b90506103c3828261037c565b919050565b600067ffffffffffffffff8211156103e3576103e261034d565b5b6103ec8261033c565b9050602081019050919050565b82818337600083830152505050565b600061041b610416846103c8565b6103ad565b90508281526020810184848401111561043757610436610337565b5b6104428482856103f9565b509392505050565b600082601f83011261045f5761045e610332565b5b813561046f848260208601610408565b91505092915050565b60008115159050919050565b61048d81610478565b811461049857600080fd5b50565b6000813590506104aa81610484565b92915050565b600080600080600060a086880312156104cc576104cb6102f2565b5b60006104da8882890161031d565b955050602086013567ffffffffffffffff8111156104fb576104fa6102f7565b5b6105078882890161044a565b945050604086013567ffffffffffffffff811115610528576105276102f7565b5b6105348882890161044a565b935050606086013567ffffffffffffffff811115610555576105546102f7565b5b6105618882890161044a565b92505060806105728882890161049b565b9150509295509295909350565b610588816102fc565b82525050565b60006020820190506105a3600083018461057f565b92915050565b6000806000606084860312156105c2576105c16102f2565b5b600084013567ffffffffffffffff8111156105e0576105df6102f7565b5b6105ec8682870161044a565b935050602084013567ffffffffffffffff81111561060d5761060c6102f7565b5b6106198682870161044a565b925050604084013567ffffffffffffffff81111561063a576106396102f7565b5b6106468682870161044a565b9150509250925092565b600082825260208201905092915050565b7f496e76616c696420706f73742049440000000000000000000000000000000000600082015250565b6000610697600f83610650565b91506106a282610661565b602082019050919050565b600060208201905081810360008301526106c68161068a565b9050919050565b7f506f737420494420646f6573206e6f7420657869737400000000000000000000600082015250565b6000610703601683610650565b915061070e826106cd565b602082019050919050565b60006020820190508181036000830152610732816106f6565b9050919050565b7f5469746c652063616e6e6f7420626520656d7074790000000000000000000000600082015250565b600061076f601583610650565b915061077a82610739565b602082019050919050565b6000602082019050818103600083015261079e81610762565b9050919050565b7f436f6e74656e74732063616e6e6f7420626520656d7074790000000000000000600082015250565b60006107db601883610650565b91506107e6826107a5565b602082019050919050565b6000602082019050818103600083015261080a816107ce565b9050919050565b600073ffffffffffffffffffffffffffffffffffffffff82169050919050565b600061083c82610811565b9050919050565b61084c81610831565b82525050565b600081519050919050565b60005b8381101561087b578082015181840152602081019050610860565b60008484015250505050565b600061089282610852565b61089c8185610650565b93506108ac81856020860161085d565b6108b58161033c565b840191505092915050565b6108c981610478565b82525050565b600060e0820190506108e4600083018a61057f565b6108f16020830189610843565b6108fe604083018861057f565b81810360608301526109108187610887565b905081810360808301526109248186610887565b905081810360a08301526109388185610887565b905061094760c08301846108c0565b98975050505050505050565b7f4e487b7100000000000000000000000000000000000000000000000000000000600052601160045260246000fd5b600061098d826102fc565b9150610998836102fc565b92508282019050808211156109b0576109af610953565b5b9291505056fea2646970667358221220b5cf70312f97b7980255475564a428781fb58eaaca261c7ae88c84b6745243d764736f6c634300081b0033",
  "linkReferences": {},
  "deployedLinkReferences": {}
}